:100000000C94D4000C94FC000C94FC000C94FC00A8
:100010000C94FC000C94FC000C94FC000C94FC0070
:100020000C94FC000C94FC000C94DC030C944B042A
:100030000C94FC000C94FC000C94FC000C94FC0050
:100040000C94FC000C94FC000C94FC000C94FC0040
:100050000C94FC000C94FC000C94FC000C947D06A9
:100060000C94FC000C94FC000C94FC000C94FC0020
:100070000C94FC000C94FC000C94FC000C94FC0010
:100080000C94C7060C94FC000C94FC000C94FC002F
:100090000C94FC000C94FC000C94FC000C94FC00F0
:1000A0000C94FC000C94FC000C94FC000706050466
:1000B0000100080A0B0C0D09080B000202020000E7
:1000C00009040000010202000005240010010524BB
:1000D000010101042402060524060001070581032D
:1000E00010004009040100020A0000000705020296
:1000F00040000007058302400000040309041201C8
:100100000002EF0201404123368000010102030199
:1001100041726475696E6F204C4C43004172647586
:10012000696E6F204C656F6E6172646F0000000035
:100130000200090F0000030401000C000000000091
:1001400000000000000000000000000000000000AF
:10015000250028002B002E003100000000002400A4
:1001600027002A002D0030000404040404030405C1
:100170000202020204030202020206060606060644
:10018000040402020204040408020110408040102A
:1001900020408040800802040180402010020110AD
:1001A000801020404020FA0611241FBECFEFDAE075
:1001B000DEBFCDBF11E0A0E0B1E0EEE7F2E102C0AA
:1001C00005900D92AA32B107D9F721E0AAE2B1E079
:1001D00001C01D92A939B207E1F710E0C4EDD0E0EB
:1001E00004C02197FE010E943709C33DD107C9F71A
:1001F0000E940F070C943D090C94000090E0FC0154
:10020000E957FE4F249188599E4FFC018491882321
:1002100099F090E0880F991FFC01E65AFE4FA591D6
:10022000B491FC01E45BFE4F859194918FB7F894F3
:10023000EC91E22BEC938FBF0895E5E3F1E024917C
:10024000EFE8F1E03491E0E7F1E09491992309F4CB
:1002500030C02223E9F021502F30D0F4E22FF0E01B
:10026000EC5CFE4F0C9437096201660143015A01B0
:100270005E0148014801480169016F01730177017E
:100280007D0148018101209180002F77209380001B
:10029000E92FF0E0EE0FFF1FE45BFE4FA591B49154
:1002A0009FB7F894EC91811132C030953E233C9376
:1002B0009FBF0895209180002F7DE8CF209180007E
:1002C000277FE4CF24B52F7724BDE2CF24B52F7D3F
:1002D000FBCF209190002F7720939000D9CF2091D1
:1002E00090002F7DF9CF20919000277FF5CF2091AE
:1002F000C0002F772093C000CBCF2091C0002F7D6E
:10030000F9CF2091C200277F2093C200C1CF3E2B9E
:10031000CECFFC0180919801882311F13FB7F8946A
:1003200082E08093E9002091F200822F90E018167D
:10033000190614F481E090E0882339F0289844E607
:10034000409397014091F1004083222339F020919E
:10035000F200211103C02BE62093E8003FBF08956F
:100360008FEF9FEF08952FB7F89483E08093E90013
:100370009091E800892F807295FF04C09091F2005F
:1003800080E4891B2FBF089580918F0181110DC0DA
:1003900082E080938B0184E080938C0110928E0127
:1003A00010928D0181E080938F018BE891E0089598
:1003B000CF93DF931F92CDB7DEB76983DC01ED9158
:1003C000FC910280F381E02D41E050E0BE016F5FBF
:1003D0007F4F09950F90DF91CF91089583E080932F
:1003E000E9008091F200882319F08AE38093E80005
:1003F00008950E94B30190E00895CF93DF931F9278
:10040000CDB7DEB7FC018485958597FD08C02FEF39
:100410003FEF358724870F90DF91CF910895CE016C
:1004200001960E948901019719F4898190E0F3CF28
:100430008FEF9FEFF0CF0F931F93CF93DF931F9218
:10044000CDB7DEB78C01FC018485958597FF0BC085
:10045000CE0101960E948901019771F4898190E093
:10046000F80195878487F801848595850F90DF9141
:10047000CF911F910F9108958FEF9FEFF1CFFC0166
:100480008485958597FD0BC09FB7F89482E0809393
:10049000E9008091F2009FBF90E0019608959FB718
:1004A000F89482E08093E9008091F2009FBF90E091
:1004B00008954091350150913601209133013091DA
:1004C000340142175307B4F49091E8009570E1F3BA
:1004D0009091E80092FD19C08093F1008091350160
:1004E0009091360101968F739927892B19F48EEF1D
:1004F0008093E800809135019091360101969093A8
:1005000036018093350181E0089580E00895EF92EF
:10051000FF920F931F93CF93DF93F82E192FE62EA0
:10052000042F81E0860F880F0E94590283E00E9409
:100530005902CF2DD12FEC0EFD2EF11CCE15DF056B
:10054000B9F007FF13C0FE0184910E945902182FD1
:1005500080E00E945902812321968111EFCFDF9123
:10056000CF911F910F91FF90EF9008958881EDCF6B
:1005700081E0F5CFDF92EF92FF920F931F93CF931D
:10058000DF93D82E8A01EB017B01E40EF51ECE1518
:10059000DF0559F0D7FE12C0FE0184910E94590276
:1005A00021968111F4CF0FEF1FEFC801DF91CF919A
:1005B0001F910F91FF90EF90DF9008958881EECF0B
:1005C0000F931F93CF93DF931F92CDB7DEB782E0D7
:1005D000898342E450E068EB70E080E80E94BA0250
:1005E0000E94C401DC0112960D911C9101151105A8
:1005F00089F0D801ED91FC910280F381E02DBE01DC
:100600006F5F7F4FC801099597FD04C0F801008511
:100610001185ECCF89810F90DF91CF911F910F91C0
:100620000895615030F02091F100FC012083019683
:10063000F8CF289884E68093970108953FB7F894FF
:1006400080912F0190913001A0913101B091320140
:1006500026B5A89B05C02F3F19F00196A11DB11D1D
:100660003FBFBA2FA92F982F8827BC01CD01620F59
:10067000711D811D911D42E0660F771F881F991F14
:100680004A95D1F70895CF92DF92EF92FF920E94A0
:100690001E036B017C010E941E036C197D098E09EB
:1006A0009F09683E734081059105A8F3FF90EF9084
:1006B000DF90CF9008958F929F92AF92BF92CF928A
:1006C000DF92EF92FF920F931F93CF93DF936C0112
:1006D0007B018A0180910B01882309F458C0809125
:1006E0009801882309F453C080913A0180FF05C026
:1006F0008091E00082608093E000E801B12C8AEFF5
:10070000A82E93E0892E2AE3922E209711F4BB2085
:10071000B9F10E94B301811106C0AA94AA20B9F1CF
:100720000E944303F2CF8C171D0611F00CF08C2FA2
:100730009FB7F8948092E9002091E80025FD02C05F
:100740009FBFE3CF282F30E0C21BD30BF7018150AE
:1007500020F041914093F100FACFE20EF31EBB204E
:1007600021F09092E800B12CEBCF8091E80085FD5C
:10077000E7CF9092E800BB24B394209709F3F3CF1E
:100780005D9884E680933901101611063CF081E0F3
:1007900090E0F6019383828310E000E0C801DF91CE
:1007A000CF911F910F91FF90EF90DF90CF90BF906E
:1007B000AF909F908F9008951F920F920FB60F9257
:1007C00011248F939F938091E1009091E100937F9A
:1007D0009093E10083FF0FC01092E90091E09093A5
:1007E000EB001092EC0092E39093ED0010929801D0
:1007F00098E09093F00082FF22C093E09093E9008C
:100800009091F200992319F09AE39093E800909167
:100810003901992341F09091390191509093390118
:10082000911101C05D9A90919701992341F09091A7
:100830009701915090939701911101C0289A84FFDC
:1008400018C08091E2008E7E81608093E2008091EA
:10085000E1008F7E8093E10080913A018E7E80617D
:1008600080933A019F918F910F900FBE0F901F9030
:10087000189580FFF7CF8091E2008E7E8061809393
:10088000E2008091E1008E7E8093E10080913A0148
:100890008E7E8160E5CF1F920F920FB60F921124CA
:1008A000CF92DF92EF92FF920F931F932F933F937C
:1008B0004F935F936F937F938F939F93AF93BF9368
:1008C000EF93FF93CF93DF93CDB7DEB76C97DEBF87
:1008D000CDBF1092E9008091E80083FF25C068E059
:1008E000CE0145960E94110382EF8093E8008D8926
:1008F00087FF39C09091E80090FFFCCF982F907649
:1009000009F034C19E894F89588D2F89F88C911137
:1009100031C0803861F5809138018093F1001092E8
:10092000F1008EEF8093E8006C960FB6F894DEBF6E
:100930000FBECDBFDF91CF91FF91EF91BF91AF91EE
:100940009F918F917F916F915F914F913F912F91E7
:100950001F910F91FF90EF90DF90CF900F900FBEFF
:100960000F901F9018959EEF9093E800C7CF1092BC
:10097000F100D5CF913059F48111D3CF41305105D9
:1009800081F6809138018D7F80933801CACF9330F2
:1009900049F48111C6CF4130510519F680913801D3
:1009A0008260F2CF953041F48091E80080FFFCCF67
:1009B00020682093E300B5CF963009F0A9C00B8DD5
:1009C0001C8D22E01092E900109236011092350140
:1009D000F2122EC010923401109233010E94E002F4
:1009E0001F8299E09983FA8291E09E8390EA98872A
:1009F0009AEF99872091350130913601275F3F4F5B
:100A00003C832B838D831092E90010923601109263
:100A10003501109334010093330149E050E0BE01E9
:100A20006F5F7F4F80E00E94BA020E94E00279CFA0
:100A300010933401009333010E94C401DC0112962B
:100A40000D911C910115110509F451C1D801ED91C9
:100A5000FC910480F581E02DBE016B5E7F4FC801E3
:100A60000995009709F03EC1F80100851185EACF8C
:100A7000F3E0FF120EC08F89882309F440C0823052
:100A800061F440E860E18CE191E00E94870281110D
:100A900048CF81E28093EB0047CF813029F440E8D2
:100AA0006BE080E191E0F1CF833099F70E94C401BF
:100AB000DC011296ED90FC908E010F5F1F4F6801D4
:100AC000E114F10479F0D701ED91FC910680F781F2
:100AD000E02DB801C7010995080F111DF701E08449
:100AE000F184EECFD8011C92F60101900020E9F7C5
:100AF0003197BF016C197D0940E0C601C6CF6AEF8E
:100B000070E0FB01449150E080E80E94BA0209CFF6
:100B1000973009F4BECF983021F481E08093F10042
:100B200000CF993009F0FDCE837009F0B2CFE1E13A
:100B3000F1E081E031E096E32191222371F080938E
:100B4000E9003093EB00DF0111972C912093EC002A
:100B50009093ED008F5F873079F78EE78093EA00FE
:100B60001092EA008F8980939801DBCE8B8D9C8D4B
:100B70001092E900109236011092350190933401E1
:100B800080933301898D811192C08E899D89913A1C
:100B900049F4813209F07DCF47E050E064E071E034
:100BA00080E0B3CF913209F074CF833269F48F893A
:100BB000988DB0E0A0E08093000190930101A09394
:100BC0000201B0930301ADCE803269F48091E80058
:100BD00082FFFCCF67E084E091E00E9411038BEF7D
:100BE0008093E8009ECE823209F09BCE8F8980935D
:100BF0000B01EEEFFFE7859194918B3F9C4D51F1F6
:100C0000E0E0F8E08091040190910501A0910601D7
:100C1000B0910701803B9440A105B105F1F48091AA
:100C20000B0180FD1AC0EE3F8AE0F80789F587E7DF
:100C300097E791838083809160008093370188E1FA
:100C40009BE00FB6F894A895809360000FBE909338
:100C5000600067CEEEEFFAE0D5CF808191818737D3
:100C6000974709F05ECEA8958091600088618093D7
:100C700060008091370180936000EE3F2AE0F20728
:100C800089F08091FE0A9091FF0A9183808349CE7A
:100C9000808191818737980751F29093FF0A809362
:100CA000FE0AC5CF1092FF0A1092FE0A3ACE0E94A9
:100CB000C401DC0112960D911C910115110509F476
:100CC000E8CED801ED91FC910190F081E02DBE01BC
:100CD0006B5E7F4FC8010995811123CEF801008515
:100CE0001185EBCF181619060CF41BCED2CEF1E00D
:100CF000FF12BECE6EEF70E004CF1F920F920FB6C0
:100D00000F9211242F933F938F939F93AF93BF9391
:100D100080912B0190912C01A0912D01B0912E0179
:100D200030912A0123E0230F2D3758F50196A11D9C
:100D3000B11D20932A0180932B0190932C01A09345
:100D40002D01B0932E0180912F0190913001A0913F
:100D50003101B09132010196A11DB11D80932F0187
:100D600090933001A0933101B0933201BF91AF91C4
:100D70009F918F913F912F910F900FBE0F901F90D9
:100D8000189526E8230F0296A11DB11DD2CF1F9200
:100D90000F920FB60F9211242F933F934F935F93AF
:100DA0006F937F938F939F93AF93BF93EF93FF9333
:100DB0000E947C0828EE33E040E050E00E94D40816
:100DC000653071058105910524F4769800000000D6
:100DD000769AFF91EF91BF91AF919F918F917F9103
:100DE0006F915F914F913F912F910F900FBE0F9098
:100DF0001F901895EBE3F1E01382128288EE93E0E6
:100E0000A0E0B0E084839583A683B7838BE191E073
:100E1000918380838FEF9FEF9587848708957894DF
:100E200084B5826084BD84B5816084BD85B58260EF
:100E300085BD85B5816085BD80916E0081608093A0
:100E40006E00109281008091810082608093810009
:100E50008091810081608093810080918000816019
:100E600080938000809191008260809391008091B6
:100E700091008160809391008091900081608093C7
:100E800090008091C10084608093C1008091C10076
:100E900082608093C1008091C10081608093C10015
:100EA0008091C30081608093C3008091C000826004
:100EB0008093C0008091C20081608093C2008091C5
:100EC0007A00846080937A0080917A0082608093B7
:100ED0007A0080917A00816080937A0080917A0014
:100EE000806880937A0010929801109238011092D5
:100EF0003A018091D70081608093D70080EA809387
:100F0000D80089B5806189BD89B5826089BD09B481
:100F100000FEFDCF0E9443038091D8008F7C80614A
:100F20008093D8008091E000807F8093E0008091E2
:100F3000E1008E7E8093E1008DE08093E200559A7F
:100F4000209A88E00E94FE0087E00E94FE0089E06F
:100F50000E94FE00ECEAF0E0E49190917B008E2F7D
:100F6000880F880F80729F7D892B80937B00E770AC
:100F7000E064E0937C0080917A00806480937A0042
:100F800080917A0086FDFCCF809178006091790095
:100F9000762F682F072E000C880B990B61157105B1
:100FA0008105910511F00E94CB0882E880938000B2
:100FB00089E1809381008FE090E090938700809397
:100FC000860087E090E090938900809388001092DB
:100FD000900089E08093910088EC90E090939900D4
:100FE0008093980082E080937100789422E3C22E6F
:100FF000D12CE12CF12CC0E0D0E00E947C084B0108
:101000005C0181E00E941D01C501B401A7019601A8
:101010000E94D4086C597F4F660F771F660F771FA9
:10102000CB0105970197F1F70E947C084B015C0109
:1010300080E00E941D01C501B401A70196010E9434
:10104000D4086C597F4F660F771F660F771FCB014F
:1010500005970197F1F7209781F20E940000CDCF0C
:101060008F929F92AF92BF92CF92DF92EF92FF92B8
:10107000CF93DF93EC01688179818A819B8161152F
:1010800071058105910521F464E279ED8BE597E026
:101090002DE133EF41E050E00E94D40849015A01AC
:1010A0009B01AC01A7EAB1E40E94F3086B017C014B
:1010B000ACEEB4EFA50194010E940109C60ED71E43
:1010C000E81EF91EF7FE06C081E0C81AD108E10843
:1010D00080E8F80AC882D982EA82FB82C701B60199
:1010E0009F77DF91CF91FF90EF90DF90CF90BF90EF
:1010F000AF909F908F9008958F929F92AF92BF92E2
:10110000CF92DF92EF92FF9260910C0170910D01EE
:1011100080910E0190910F01611571058105910576
:1011200021F464E279ED8BE597E02DE133EF41E0C6
:1011300050E00E94D40849015A019B01AC01A7EA82
:10114000B1E40E94F3086B017C01ACEEB4EFA501A1
:1011500094010E940109C60ED71EE81EF91EF7FE73
:1011600006C081E0C81AD108E10880E8F80AC092F8
:101170000C01D0920D01E0920E01F0920F01C70117
:10118000B6019F77FF90EF90DF90CF90BF90AF9028
:101190009F908F90089560930C0170930D01809340
:1011A0000E0190930F010895052E97FB1EF40094F5
:1011B0000E94EB0857FD07D00E94060907FC03D0E8
:1011C0004EF40C94EB0850954095309521953F4F87
:1011D0004F4F5F4F089590958095709561957F4F23
:1011E0008F4F9F4F08950E942809A59F900DB49F8F
:1011F000900DA49F800D911D11240895B7FF0C94AC
:10120000F3080E94F308821B930B0895A1E21A2EA3
:10121000AA1BBB1BFD010DC0AA1FBB1FEE1FFF1F9A
:10122000A217B307E407F50720F0A21BB30BE40BEA
:10123000F50B661F771F881F991F1A9469F7609531
:101240007095809590959B01AC01BD01CF010895EB
:10125000A29FB001B39FC001A39F700D811D1124F7
:10126000911DB29F700D811D1124911D0895EE0FE7
:0E127000FF1F0590F491E02D0994F894FFCF34
:10127E00FFFFFFFF00E10000000000000100000082
:10128E0000C1808100000000000000D8015B03F95E
:0A129E0001EE013F02FD011B0200FA
:00000001FF
