:020000040000FA
:100000000C945C000C9479000C9479000C947900A9
:100010000C9479000C9479000C9479000C942C01C8
:100020000C9479000C9479000C9479000C9479006C
:100030000C9479000C9479000C9479000C9479005C
:100040000C94E2000C9479000C9479000C947900E3
:100050000C9479000C9479000C9479000C9479003C
:100060000C9479000C947900000000080002010053
:100070000003040700000000000000000000000072
:10008000250028002B0000000000240027002A0083
:10009000040404040404040402020202020203032E
:1000A0000303030301020408102040800102040836
:1000B000102001020408102011241FBECFEFD8E049
:1000C000DEBFCDBF11E0A0E0B1E0E2E5F6E002C0A6
:1000D00005900D92A430B107D9F721E0A4E0B1E07A
:1000E00001C01D92AD30B207E1F70E945F010C9490
:1000F00027030C94000090E0FC01EC55FF4F249185
:1001000080579F4FFC018491882399F090E0880FDD
:10011000991FFC01EA57FF4FA591B491FC01E458E7
:10012000FF4F859194918FB7F894EC91E22BEC936B
:100130008FBF0895E0E7F0E02491ECEAF0E09491BD
:10014000E8E9F0E0E491EE23C9F0222339F023300E
:1001500001F1A8F4213019F1223029F1F0E0EE0F7D
:10016000FF1FE458FF4FA591B4912FB7F894EC917D
:10017000811126C090959E239C932FBF0895273010
:10018000A9F02830C9F0243049F7209180002F7D54
:1001900003C0209180002F7720938000DFCF24B50B
:1001A0002F7724BDDBCF24B52F7DFBCF2091B0006E
:1001B0002F772093B000D2CF2091B0002F7DF9CFC0
:1001C0009E2BDACF1F920F920FB60F9211242F930E
:1001D0003F938F939F93AF93BF9380910901909129
:1001E0000A01A0910B01B0910C013091080123E0AC
:1001F000230F2D3758F50196A11DB11D209308013D
:100200008093090190930A01A0930B01B0930C0114
:100210008091040190910501A0910601B091070120
:100220000196A11DB11D8093040190930501A09337
:100230000601B0930701BF91AF919F918F913F91BC
:100240002F910F900FBE0F901F90189526E8230F47
:100250000296A11DB11DD2CF1F920F920FB60F9221
:1002600011242F933F934F935F936F937F938F93BB
:100270009F93AF93BF93EF93FF930E946C0228EE7E
:1002800033E040E050E00E94C40265307105810512
:10029000910524F45F98000000005F9AFF91EF91B0
:1002A000BF91AF919F918F917F916F915F914F918E
:1002B0003F912F910F900FBE0F901F90189578943B
:1002C00084B5826084BD84B5816084BD85B582605B
:1002D00085BD85B5816085BD80916E00816080930C
:1002E0006E00109281008091810082608093810075
:1002F0008091810081608093810080918000816085
:10030000809380008091B10084608093B1008091DF
:10031000B00081608093B00080917A008460809307
:100320007A0080917A00826080937A0080917A00CE
:10033000816080937A0080917A00806880937A004F
:100340001092C10088E00E947B0087E00E947B0041
:1003500089E00E947B0080E480937C0080917A0099
:10036000806480937A0080917A0086FDFCCF809132
:10037000780060917900762F682F072E000C880B8B
:10038000990B611571058105910511F00E94BB0261
:1003900082E88093800089E1809381008FE090E083
:1003A000909387008093860087E090E09093890087
:1003B0008093880082E08093B00091E09093B10038
:1003C00098EC9093B30080937000789422E3C22E4F
:1003D000D12CE12CF12CC0E0D0E00E946C024B014A
:1003E0005C0181E00E949A00C501B401A701960159
:1003F0000E94C4026C597F4F660F771F660F771FEC
:10040000CB0105970197F1F70E946C024B015C014B
:1004100080E00E949A00C501B401A70196010E94E4
:10042000C4026C597F4F660F771F660F771FCB0191
:1004300005970197F1F7209781F20E940000CDCF38
:100440008F929F92AF92BF92CF92DF92EF92FF92E4
:10045000CF93DF93EC01688179818A819B8161155B
:1004600071058105910521F464E279ED8BE597E052
:100470002DE133EF41E050E00E94C40249015A01EE
:100480009B01AC01A7EAB1E40E94E3026B017C018D
:10049000ACEEB4EFA50194010E94F102C60ED71E86
:1004A000E81EF91EF7FE06C081E0C81AD108E1086F
:1004B00080E8F80AC882D982EA82FB82C701B601C5
:1004C0009F77DF91CF91FF90EF90DF90CF90BF901B
:1004D000AF909F908F9008958F929F92AF92BF920E
:1004E000CF92DF92EF92FF92609100017091010133
:1004F00080910201909103016115710581059105BB
:1005000021F464E279ED8BE597E02DE133EF41E0F2
:1005100050E00E94C40249015A019B01AC01A7EAC4
:10052000B1E40E94E3026B017C01ACEEB4EFA501E3
:1005300094010E94F102C60ED71EE81EF91EF7FEB6
:1005400006C081E0C81AD108E10880E8F80AC09224
:100550000001D0920101E0920201F0920301C70173
:10056000B6019F77FF90EF90DF90CF90BF90AF9054
:100570009F908F9008956093000170930101809384
:100580000201909303010895052E97FB1EF4009439
:100590000E94DB0257FD07D00E94F60207FC03D041
:1005A0004EF40C94DB0250954095309521953F4FC9
:1005B0004F4F5F4F089590958095709561957F4F4F
:1005C0008F4F9F4F08950E941803A59F900DB49FD1
:1005D000900DA49F800D911D11240895B7FF0C94D8
:1005E000E3020E94E302821B930B0895A1E21A2EFC
:1005F000AA1BBB1BFD010DC0AA1FBB1FEE1FFF1FC7
:10060000A217B307E407F50720F0A21BB30BE40B16
:10061000F50B661F771F881F991F1A9469F760955D
:100620007095809590959B01AC01BD01CF01089517
:10063000A29FB001B39FC001A39F700D811D112423
:10064000911DB29F700D811D1124911D0895F89484
:06065000FFCF01000000D5
:107E0000112484B714BE81FFF0D085E080938100F7
:107E100082E08093C00088E18093C10086E0809377
:107E2000C20080E18093C4008EE0C9D0259A86E02C
:107E300020E33CEF91E0309385002093840096BBD3
:107E4000B09BFECF1D9AA8958150A9F7CC24DD24C4
:107E500088248394B5E0AB2EA1E19A2EF3E0BF2EE7
:107E6000A2D0813461F49FD0082FAFD0023811F036
:107E7000013811F484E001C083E08DD089C08234E0
:107E800011F484E103C0853419F485E0A6D080C0E4
:107E9000853579F488D0E82EFF2485D0082F10E0AE
:107EA000102F00270E291F29000F111F8ED06801E7
:107EB0006FC0863521F484E090D080E0DECF843638
:107EC00009F040C070D06FD0082F6DD080E0C81688
:107ED00080E7D80618F4F601B7BEE895C0E0D1E017
:107EE00062D089930C17E1F7F0E0CF16F0E7DF06D8
:107EF00018F0F601B7BEE89568D007B600FCFDCFD4
:107F0000A601A0E0B1E02C9130E011968C91119780
:107F100090E0982F8827822B932B1296FA010C0160
:107F200087BEE89511244E5F5F4FF1E0A038BF0790
:107F300051F7F601A7BEE89507B600FCFDCF97BE46
:107F4000E89526C08437B1F42ED02DD0F82E2BD052
:107F50003CD0F601EF2C8F010F5F1F4F84911BD097
:107F6000EA94F801C1F70894C11CD11CFA94CF0C13
:107F7000D11C0EC0853739F428D08EE10CD085E9AC
:107F80000AD08FE07ACF813511F488E018D01DD067
:107F900080E101D065CF982F8091C00085FFFCCF94
:107FA0009093C60008958091C00087FFFCCF809118
:107FB000C00084FD01C0A8958091C6000895E0E648
:107FC000F0E098E1908380830895EDDF803219F02E
:107FD00088E0F5DFFFCF84E1DECF1F93182FE3DFCA
:107FE0001150E9F7F2DF1F91089580E0E8DFEE27F6
:047FF000FF270994CA
:027FFE00040479
:00000001FF
